{
  "contractName": "SolnSquareVerifier",
  "abi": [
    {
      "constant": true,
      "inputs": [
        {
          "name": "interfaceId",
          "type": "bytes4"
        }
      ],
      "name": "supportsInterface",
      "outputs": [
        {
          "name": "",
          "type": "bool"
        }
      ],
      "payable": false,
      "stateMutability": "view",
      "type": "function"
    },
    {
      "constant": true,
      "inputs": [],
      "name": "name",
      "outputs": [
        {
          "name": "",
          "type": "string"
        }
      ],
      "payable": false,
      "stateMutability": "view",
      "type": "function"
    },
    {
      "constant": true,
      "inputs": [
        {
          "name": "tokenId",
          "type": "uint256"
        }
      ],
      "name": "getApproved",
      "outputs": [
        {
          "name": "",
          "type": "address"
        }
      ],
      "payable": false,
      "stateMutability": "view",
      "type": "function"
    },
    {
      "constant": false,
      "inputs": [
        {
          "name": "to",
          "type": "address"
        },
        {
          "name": "tokenId",
          "type": "uint256"
        }
      ],
      "name": "approve",
      "outputs": [],
      "payable": false,
      "stateMutability": "nonpayable",
      "type": "function"
    },
    {
      "constant": true,
      "inputs": [],
      "name": "totalSupply",
      "outputs": [
        {
          "name": "",
          "type": "uint256"
        }
      ],
      "payable": false,
      "stateMutability": "view",
      "type": "function"
    },
    {
      "constant": false,
      "inputs": [
        {
          "name": "from",
          "type": "address"
        },
        {
          "name": "to",
          "type": "address"
        },
        {
          "name": "tokenId",
          "type": "uint256"
        }
      ],
      "name": "transferFrom",
      "outputs": [],
      "payable": false,
      "stateMutability": "nonpayable",
      "type": "function"
    },
    {
      "constant": false,
      "inputs": [
        {
          "name": "_myid",
          "type": "bytes32"
        },
        {
          "name": "_result",
          "type": "string"
        }
      ],
      "name": "__callback",
      "outputs": [],
      "payable": false,
      "stateMutability": "nonpayable",
      "type": "function"
    },
    {
      "constant": true,
      "inputs": [
        {
          "name": "owner",
          "type": "address"
        },
        {
          "name": "index",
          "type": "uint256"
        }
      ],
      "name": "tokenOfOwnerByIndex",
      "outputs": [
        {
          "name": "",
          "type": "uint256"
        }
      ],
      "payable": false,
      "stateMutability": "view",
      "type": "function"
    },
    {
      "constant": false,
      "inputs": [
        {
          "name": "_myid",
          "type": "bytes32"
        },
        {
          "name": "_result",
          "type": "string"
        },
        {
          "name": "_proof",
          "type": "bytes"
        }
      ],
      "name": "__callback",
      "outputs": [],
      "payable": false,
      "stateMutability": "nonpayable",
      "type": "function"
    },
    {
      "constant": false,
      "inputs": [],
      "name": "unpause",
      "outputs": [],
      "payable": false,
      "stateMutability": "nonpayable",
      "type": "function"
    },
    {
      "constant": false,
      "inputs": [
        {
          "name": "to",
          "type": "address"
        },
        {
          "name": "tokenId",
          "type": "uint256"
        }
      ],
      "name": "mint",
      "outputs": [
        {
          "name": "",
          "type": "bool"
        }
      ],
      "payable": false,
      "stateMutability": "nonpayable",
      "type": "function"
    },
    {
      "constant": false,
      "inputs": [
        {
          "name": "from",
          "type": "address"
        },
        {
          "name": "to",
          "type": "address"
        },
        {
          "name": "tokenId",
          "type": "uint256"
        }
      ],
      "name": "safeTransferFrom",
      "outputs": [],
      "payable": false,
      "stateMutability": "nonpayable",
      "type": "function"
    },
    {
      "constant": true,
      "inputs": [
        {
          "name": "index",
          "type": "uint256"
        }
      ],
      "name": "tokenByIndex",
      "outputs": [
        {
          "name": "",
          "type": "uint256"
        }
      ],
      "payable": false,
      "stateMutability": "view",
      "type": "function"
    },
    {
      "constant": true,
      "inputs": [
        {
          "name": "tokenId",
          "type": "uint256"
        }
      ],
      "name": "ownerOf",
      "outputs": [
        {
          "name": "",
          "type": "address"
        }
      ],
      "payable": false,
      "stateMutability": "view",
      "type": "function"
    },
    {
      "constant": true,
      "inputs": [
        {
          "name": "owner",
          "type": "address"
        }
      ],
      "name": "balanceOf",
      "outputs": [
        {
          "name": "",
          "type": "uint256"
        }
      ],
      "payable": false,
      "stateMutability": "view",
      "type": "function"
    },
    {
      "constant": false,
      "inputs": [],
      "name": "pause",
      "outputs": [],
      "payable": false,
      "stateMutability": "nonpayable",
      "type": "function"
    },
    {
      "constant": true,
      "inputs": [],
      "name": "owner",
      "outputs": [
        {
          "name": "",
          "type": "address"
        }
      ],
      "payable": false,
      "stateMutability": "view",
      "type": "function"
    },
    {
      "constant": true,
      "inputs": [],
      "name": "isOwner",
      "outputs": [
        {
          "name": "",
          "type": "bool"
        }
      ],
      "payable": false,
      "stateMutability": "view",
      "type": "function"
    },
    {
      "constant": true,
      "inputs": [],
      "name": "symbol",
      "outputs": [
        {
          "name": "",
          "type": "string"
        }
      ],
      "payable": false,
      "stateMutability": "view",
      "type": "function"
    },
    {
      "constant": false,
      "inputs": [
        {
          "name": "to",
          "type": "address"
        },
        {
          "name": "approved",
          "type": "bool"
        }
      ],
      "name": "setApprovalForAll",
      "outputs": [],
      "payable": false,
      "stateMutability": "nonpayable",
      "type": "function"
    },
    {
      "constant": false,
      "inputs": [
        {
          "name": "from",
          "type": "address"
        },
        {
          "name": "to",
          "type": "address"
        },
        {
          "name": "tokenId",
          "type": "uint256"
        },
        {
          "name": "_data",
          "type": "bytes"
        }
      ],
      "name": "safeTransferFrom",
      "outputs": [],
      "payable": false,
      "stateMutability": "nonpayable",
      "type": "function"
    },
    {
      "constant": true,
      "inputs": [
        {
          "name": "tokenId",
          "type": "uint256"
        }
      ],
      "name": "tokenURI",
      "outputs": [
        {
          "name": "",
          "type": "string"
        }
      ],
      "payable": false,
      "stateMutability": "view",
      "type": "function"
    },
    {
      "constant": true,
      "inputs": [],
      "name": "baseTokenURI",
      "outputs": [
        {
          "name": "",
          "type": "string"
        }
      ],
      "payable": false,
      "stateMutability": "view",
      "type": "function"
    },
    {
      "constant": true,
      "inputs": [
        {
          "name": "owner",
          "type": "address"
        },
        {
          "name": "operator",
          "type": "address"
        }
      ],
      "name": "isApprovedForAll",
      "outputs": [
        {
          "name": "",
          "type": "bool"
        }
      ],
      "payable": false,
      "stateMutability": "view",
      "type": "function"
    },
    {
      "constant": false,
      "inputs": [
        {
          "name": "newOwner",
          "type": "address"
        }
      ],
      "name": "transferOwnership",
      "outputs": [],
      "payable": false,
      "stateMutability": "nonpayable",
      "type": "function"
    },
    {
      "inputs": [
        {
          "name": "verifierAddress",
          "type": "address"
        },
        {
          "name": "name",
          "type": "string"
        },
        {
          "name": "symbol",
          "type": "string"
        }
      ],
      "payable": false,
      "stateMutability": "nonpayable",
      "type": "constructor"
    },
    {
      "anonymous": false,
      "inputs": [
        {
          "indexed": false,
          "name": "solutionIndex",
          "type": "uint256"
        },
        {
          "indexed": true,
          "name": "solutionAddress",
          "type": "address"
        }
      ],
      "name": "SolutionAdded",
      "type": "event"
    },
    {
      "anonymous": false,
      "inputs": [
        {
          "indexed": true,
          "name": "from",
          "type": "address"
        },
        {
          "indexed": true,
          "name": "to",
          "type": "address"
        },
        {
          "indexed": true,
          "name": "tokenId",
          "type": "uint256"
        }
      ],
      "name": "Transfer",
      "type": "event"
    },
    {
      "anonymous": false,
      "inputs": [
        {
          "indexed": true,
          "name": "owner",
          "type": "address"
        },
        {
          "indexed": true,
          "name": "approved",
          "type": "address"
        },
        {
          "indexed": true,
          "name": "tokenId",
          "type": "uint256"
        }
      ],
      "name": "Approval",
      "type": "event"
    },
    {
      "anonymous": false,
      "inputs": [
        {
          "indexed": true,
          "name": "owner",
          "type": "address"
        },
        {
          "indexed": true,
          "name": "operator",
          "type": "address"
        },
        {
          "indexed": false,
          "name": "approved",
          "type": "bool"
        }
      ],
      "name": "ApprovalForAll",
      "type": "event"
    },
    {
      "anonymous": false,
      "inputs": [
        {
          "indexed": true,
          "name": "account",
          "type": "address"
        }
      ],
      "name": "Paused",
      "type": "event"
    },
    {
      "anonymous": false,
      "inputs": [
        {
          "indexed": true,
          "name": "account",
          "type": "address"
        }
      ],
      "name": "Unpaused",
      "type": "event"
    },
    {
      "anonymous": false,
      "inputs": [
        {
          "indexed": true,
          "name": "previousOwner",
          "type": "address"
        },
        {
          "indexed": true,
          "name": "newOwner",
          "type": "address"
        }
      ],
      "name": "OwnershipTransferred",
      "type": "event"
    },
    {
      "constant": false,
      "inputs": [
        {
          "name": "A",
          "type": "uint256[2]"
        },
        {
          "name": "A_p",
          "type": "uint256[2]"
        },
        {
          "name": "B",
          "type": "uint256[2][2]"
        },
        {
          "name": "B_p",
          "type": "uint256[2]"
        },
        {
          "name": "C",
          "type": "uint256[2]"
        },
        {
          "name": "C_p",
          "type": "uint256[2]"
        },
        {
          "name": "H",
          "type": "uint256[2]"
        },
        {
          "name": "K",
          "type": "uint256[2]"
        },
        {
          "name": "input",
          "type": "uint256[2]"
        }
      ],
      "name": "addSolution",
      "outputs": [],
      "payable": false,
      "stateMutability": "nonpayable",
      "type": "function"
    },
    {
      "constant": false,
      "inputs": [
        {
          "name": "a",
          "type": "uint256"
        },
        {
          "name": "b",
          "type": "uint256"
        },
        {
          "name": "to",
          "type": "address"
        }
      ],
      "name": "mintNewNFT",
      "outputs": [],
      "payable": false,
      "stateMutability": "nonpayable",
      "type": "function"
    }
  ],
  "bytecode": "0x608060405260006014553480156200001657600080fd5b50604051620041fb380380620041fb833981018060405260608110156200003c57600080fd5b810190808051906020019092919080516401000000008111156200005f57600080fd5b828101905060208101848111156200007657600080fd5b81518560018202830111640100000000821117156200009457600080fd5b50509291906020018051640100000000811115620000b157600080fd5b82810190506020810184811115620000c857600080fd5b8151856001820283011164010000000082111715620000e657600080fd5b505092919050505081818181606060405190810160405280603f8152602001620041bc603f9139336000806101000a81548173ffffffffffffffffffffffffffffffffffffffff021916908373ffffffffffffffffffffffffffffffffffffffff1602179055506000809054906101000a900473ffffffffffffffffffffffffffffffffffffffff1673ffffffffffffffffffffffffffffffffffffffff16600073ffffffffffffffffffffffffffffffffffffffff167f8be0079c531659141344cd1fd0a4f28419497f9722a3daafe3b4186f6b6457e060405160405180910390a360008060146101000a81548160ff021916908315150217905550620002206301ffc9a77c01000000000000000000000000000000000000000000000000000000000262000371640100000000026401000000009004565b6200025d6380ac58cd7c01000000000000000000000000000000000000000000000000000000000262000371640100000000026401000000009004565b6200029a63780e9d637c01000000000000000000000000000000000000000000000000000000000262000371640100000000026401000000009004565b82600f9080519060200190620002b29291906200042f565b508160109080519060200190620002cb9291906200042f565b508060119080519060200190620002e49291906200042f565b5062000322635b5e139f7c01000000000000000000000000000000000000000000000000000000000262000371640100000000026401000000009004565b505050505082601360006101000a81548173ffffffffffffffffffffffffffffffffffffffff021916908373ffffffffffffffffffffffffffffffffffffffff160217905550505050620004de565b63ffffffff7c010000000000000000000000000000000000000000000000000000000002817bffffffffffffffffffffffffffffffffffffffffffffffffffffffff191614151515620003c357600080fd5b6001806000837bffffffffffffffffffffffffffffffffffffffffffffffffffffffff19167bffffffffffffffffffffffffffffffffffffffffffffffffffffffff1916815260200190815260200160002060006101000a81548160ff02191690831515021790555050565b828054600181600116156101000203166002900490600052602060002090601f016020900481019282601f106200047257805160ff1916838001178555620004a3565b82800160010185558215620004a3579182015b82811115620004a257825182559160200191906001019062000485565b5b509050620004b29190620004b6565b5090565b620004db91905b80821115620004d7576000816000905550600101620004bd565b5090565b90565b613cce80620004ee6000396000f3fe608060405234801561001057600080fd5b50600436106101c6576000357c0100000000000000000000000000000000000000000000000000000000900480634f6ccce71161011657806395d89b41116100b4578063c87b56dd1161008e578063c87b56dd14610db0578063d547cfb714610e57578063e985e9c514610eda578063f2fde38b14610f56576101c6565b806395d89b4114610bd8578063a22cb46514610c5b578063b88d4fde14610cab576101c6565b806370a08231116100f057806370a0823114610b0a5780638456cb5914610b625780638da5cb5b14610b6c5780638f32d59b14610bb6576101c6565b80634f6ccce7146107b45780635a50ec51146107f65780636352211e14610a9c576101c6565b806327dc297e1161018357806338d470961161015d57806338d470961461067e5780633f4ba83a146106d657806340c10f19146106e057806342842e0e14610746576101c6565b806327dc297e146103fb5780632f745c59146104c057806338bbfa5014610522576101c6565b806301ffc9a7146101cb57806306fdde0314610230578063081812fc146102b3578063095ea7b31461032157806318160ddd1461036f57806323b872dd1461038d575b600080fd5b610216600480360360208110156101e157600080fd5b8101908080357bffffffffffffffffffffffffffffffffffffffffffffffffffffffff19169060200190929190505050610f9a565b604051808215151515815260200191505060405180910390f35b610238611002565b6040518080602001828103825283818151815260200191508051906020019080838360005b8381101561027857808201518184015260208101905061025d565b50505050905090810190601f1680156102a55780820380516001836020036101000a031916815260200191505b509250505060405180910390f35b6102df600480360360208110156102c957600080fd5b81019080803590602001909291905050506110a4565b604051808273ffffffffffffffffffffffffffffffffffffffff1673ffffffffffffffffffffffffffffffffffffffff16815260200191505060405180910390f35b61036d6004803603604081101561033757600080fd5b81019080803573ffffffffffffffffffffffffffffffffffffffff169060200190929190803590602001909291905050506110e1565b005b6103776112db565b6040518082815260200191505060405180910390f35b6103f9600480360360608110156103a357600080fd5b81019080803573ffffffffffffffffffffffffffffffffffffffff169060200190929190803573ffffffffffffffffffffffffffffffffffffffff169060200190929190803590602001909291905050506112e8565b005b6104be6004803603604081101561041157600080fd5b81019080803590602001909291908035906020019064010000000081111561043857600080fd5b82018360208201111561044a57600080fd5b8035906020019184600183028401116401000000008311171561046c57600080fd5b91908080601f016020809104026020016040519081016040528093929190818152602001838380828437600081840152601f19601f82011690508083019250505050505050919291929050505061130d565b005b61050c600480360360408110156104d657600080fd5b81019080803573ffffffffffffffffffffffffffffffffffffffff16906020019092919080359060200190929190505050611350565b6040518082815260200191505060405180910390f35b61067c6004803603606081101561053857600080fd5b81019080803590602001909291908035906020019064010000000081111561055f57600080fd5b82018360208201111561057157600080fd5b8035906020019184600183028401116401000000008311171561059357600080fd5b91908080601f016020809104026020016040519081016040528093929190818152602001838380828437600081840152601f19601f820116905080830192505050505050509192919290803590602001906401000000008111156105f657600080fd5b82018360208201111561060857600080fd5b8035906020019184600183028401116401000000008311171561062a57600080fd5b91908080601f016020809104026020016040519081016040528093929190818152602001838380828437600081840152601f19601f8201169050808301925050505050505091929192905050506113c7565b005b6106d46004803603606081101561069457600080fd5b810190808035906020019092919080359060200190929190803573ffffffffffffffffffffffffffffffffffffffff1690602001909291905050506113cc565b005b6106de61166e565b005b61072c600480360360408110156106f657600080fd5b81019080803573ffffffffffffffffffffffffffffffffffffffff1690602001909291908035906020019092919050505061181c565b604051808215151515815260200191505060405180910390f35b6107b26004803603606081101561075c57600080fd5b81019080803573ffffffffffffffffffffffffffffffffffffffff169060200190929190803573ffffffffffffffffffffffffffffffffffffffff16906020019092919080359060200190929190505050611986565b005b6107e0600480360360208110156107ca57600080fd5b81019080803590602001909291905050506119a7565b6040518082815260200191505060405180910390f35b610a9a600480360361028081101561080d57600080fd5b8101908080604001906002806020026040519081016040528092919082600260200280828437600081840152601f19601f820116905080830192505050505050919291929080604001906002806020026040519081016040528092919082600260200280828437600081840152601f19601f82011690508083019250505050505091929192908060800190600280602002604051908101604052809291906000905b82821015610903578382604002016002806020026040519081016040528092919082600260200280828437600081840152601f19601f820116905080830192505050505050815260200190600101906108af565b50505050919291929080604001906002806020026040519081016040528092919082600260200280828437600081840152601f19601f820116905080830192505050505050919291929080604001906002806020026040519081016040528092919082600260200280828437600081840152601f19601f820116905080830192505050505050919291929080604001906002806020026040519081016040528092919082600260200280828437600081840152601f19601f820116905080830192505050505050919291929080604001906002806020026040519081016040528092919082600260200280828437600081840152601f19601f820116905080830192505050505050919291929080604001906002806020026040519081016040528092919082600260200280828437600081840152601f19601f820116905080830192505050505050919291929080604001906002806020026040519081016040528092919082600260200280828437600081840152601f19601f82011690508083019250505050505091929192905050506119df565b005b610ac860048036036020811015610ab257600080fd5b8101908080359060200190929190505050611f4f565b604051808273ffffffffffffffffffffffffffffffffffffffff1673ffffffffffffffffffffffffffffffffffffffff16815260200191505060405180910390f35b610b4c60048036036020811015610b2057600080fd5b81019080803573ffffffffffffffffffffffffffffffffffffffff169060200190929190505050611f8c565b6040518082815260200191505060405180910390f35b610b6a611fdc565b005b610b7461218b565b604051808273ffffffffffffffffffffffffffffffffffffffff1673ffffffffffffffffffffffffffffffffffffffff16815260200191505060405180910390f35b610bbe6121b4565b604051808215151515815260200191505060405180910390f35b610be061220b565b6040518080602001828103825283818151815260200191508051906020019080838360005b83811015610c20578082015181840152602081019050610c05565b50505050905090810190601f168015610c4d5780820380516001836020036101000a031916815260200191505b509250505060405180910390f35b610ca960048036036040811015610c7157600080fd5b81019080803573ffffffffffffffffffffffffffffffffffffffff1690602001909291908035151590602001909291905050506122ad565b005b610dae60048036036080811015610cc157600080fd5b81019080803573ffffffffffffffffffffffffffffffffffffffff169060200190929190803573ffffffffffffffffffffffffffffffffffffffff1690602001909291908035906020019092919080359060200190640100000000811115610d2857600080fd5b820183602082011115610d3a57600080fd5b80359060200191846001830284011164010000000083111715610d5c57600080fd5b91908080601f016020809104026020016040519081016040528093929190818152602001838380828437600081840152601f19601f8201169050808301925050505050505091929192905050506123e9565b005b610ddc60048036036020811015610dc657600080fd5b8101908080359060200190929190505050612411565b6040518080602001828103825283818151815260200191508051906020019080838360005b83811015610e1c578082015181840152602081019050610e01565b50505050905090810190601f168015610e495780820380516001836020036101000a031916815260200191505b509250505060405180910390f35b610e5f6124da565b6040518080602001828103825283818151815260200191508051906020019080838360005b83811015610e9f578082015181840152602081019050610e84565b50505050905090810190601f168015610ecc5780820380516001836020036101000a031916815260200191505b509250505060405180910390f35b610f3c60048036036040811015610ef057600080fd5b81019080803573ffffffffffffffffffffffffffffffffffffffff169060200190929190803573ffffffffffffffffffffffffffffffffffffffff16906020019092919050505061257c565b604051808215151515815260200191505060405180910390f35b610f9860048036036020811015610f6c57600080fd5b81019080803573ffffffffffffffffffffffffffffffffffffffff169060200190929190505050612610565b005b600060016000837bffffffffffffffffffffffffffffffffffffffffffffffffffffffff19167bffffffffffffffffffffffffffffffffffffffffffffffffffffffff1916815260200190815260200160002060009054906101000a900460ff169050919050565b6060600f8054600181600116156101000203166002900480601f01602080910402602001604051908101604052809291908181526020018280546001816001161561010002031660029004801561109a5780601f1061106f5761010080835404028352916020019161109a565b820191906000526020600020905b81548152906001019060200180831161107d57829003601f168201915b5050505050905090565b60006003600083815260200190815260200160002060009054906101000a900473ffffffffffffffffffffffffffffffffffffffff169050919050565b60006110ec82611f4f565b90508073ffffffffffffffffffffffffffffffffffffffff168373ffffffffffffffffffffffffffffffffffffffff1614151515611192576040517f08c379a000000000000000000000000000000000000000000000000000000000815260040180806020018281038252601a8152602001807f43616e6e6f7420617070726f766520746f20796f757273656c6600000000000081525060200191505060405180910390fd5b8073ffffffffffffffffffffffffffffffffffffffff163373ffffffffffffffffffffffffffffffffffffffff1614806111d257506111d1813361257c565b5b1515611229576040517f08c379a000000000000000000000000000000000000000000000000000000000815260040180806020018281038252602b815260200180613c01602b913960400191505060405180910390fd5b826003600084815260200190815260200160002060006101000a81548173ffffffffffffffffffffffffffffffffffffffff021916908373ffffffffffffffffffffffffffffffffffffffff160217905550818373ffffffffffffffffffffffffffffffffffffffff168273ffffffffffffffffffffffffffffffffffffffff167f8c5be1e5ebec7d5bd14f71427d1e84f3dd0314c0f7b2291e5b200ac8c7c3b92560405160405180910390a4505050565b6000600880549050905090565b6112f233826127ce565b15156112fd57600080fd5b611308838383612863565b505050565b61134c828260006040519080825280601f01601f1916602001820160405280156113465781602001600182028038833980820191505090505b506113c7565b5050565b600061135b83611f8c565b8210151561136857600080fd5b600660008473ffffffffffffffffffffffffffffffffffffffff1673ffffffffffffffffffffffffffffffffffffffff168152602001908152602001600020828154811015156113b457fe5b9060005260206000200154905092915050565b505050565b600083836040516020018083815260200182815260200192505050604051602081830303815290604052805190602001209050600073ffffffffffffffffffffffffffffffffffffffff166015600083815260200190815260200160002060010160009054906101000a900473ffffffffffffffffffffffffffffffffffffffff1673ffffffffffffffffffffffffffffffffffffffff16141515156114da576040517f08c379a00000000000000000000000000000000000000000000000000000000081526004018080602001828103825260178152602001807f536f6c7574696f6e20646f6573206e6f7420657869737400000000000000000081525060200191505060405180910390fd5b600015156015600083815260200190815260200160002060010160149054906101000a900460ff16151514151561155c576040517f08c379a0000000000000000000000000000000000000000000000000000000008152600401808060200182810382526026815260200180613c7d6026913960400191505060405180910390fd5b3373ffffffffffffffffffffffffffffffffffffffff166015600083815260200190815260200160002060010160009054906101000a900473ffffffffffffffffffffffffffffffffffffffff1673ffffffffffffffffffffffffffffffffffffffff16141515611618576040517f08c379a0000000000000000000000000000000000000000000000000000000008152600401808060200182810382526030815260200180613c4d6030913960400191505060405180910390fd5b61163882601560008481526020019081526020016000206000015461181c565b5060016015600083815260200190815260200160002060010160146101000a81548160ff02191690831515021790555050505050565b6000809054906101000a900473ffffffffffffffffffffffffffffffffffffffff1673ffffffffffffffffffffffffffffffffffffffff163373ffffffffffffffffffffffffffffffffffffffff16141515611732576040517f08c379a00000000000000000000000000000000000000000000000000000000081526004018080602001828103825260208152602001807f43616c6c6572206973206e6f742074686520636f6e7472616374206f776e657281525060200191505060405180910390fd5b60011515600060149054906101000a900460ff1615151415156117bd576040517f08c379a00000000000000000000000000000000000000000000000000000000081526004018080602001828103825260208152602001807f436f6e7472616374206973206e6f742063757272656e746c792070617573656481525060200191505060405180910390fd5b60008060146101000a81548160ff0219169083151502179055503373ffffffffffffffffffffffffffffffffffffffff167f5db9ee0a495bf2e6ff9c91a7834c1ba4fdd244a5e8aa4e537bd38aeae4b073aa60405160405180910390a2565b60008060009054906101000a900473ffffffffffffffffffffffffffffffffffffffff1673ffffffffffffffffffffffffffffffffffffffff163373ffffffffffffffffffffffffffffffffffffffff161415156118e2576040517f08c379a00000000000000000000000000000000000000000000000000000000081526004018080602001828103825260208152602001807f43616c6c6572206973206e6f742074686520636f6e7472616374206f776e657281525060200191505060405180910390fd5b60001515600060149054906101000a900460ff16151514151561196d576040517f08c379a000000000000000000000000000000000000000000000000000000000815260040180806020018281038252601c8152602001807f436f6e74726163742069732063757272656e746c79207061757365640000000081525060200191505060405180910390fd5b6119778383612887565b611980826128a8565b92915050565b6119a283838360206040519081016040528060008152506123e9565b505050565b60006119b16112db565b821015156119be57600080fd5b6008828154811015156119cd57fe5b90600052602060002001549050919050565b60008160006002811015156119f057fe5b6020020151826001600281101515611a0457fe5b60200201516040516020018083815260200182815260200192505050604051602081830303815290604052805190602001209050600073ffffffffffffffffffffffffffffffffffffffff166015600083815260200190815260200160002060010160009054906101000a900473ffffffffffffffffffffffffffffffffffffffff1673ffffffffffffffffffffffffffffffffffffffff16141515611b12576040517f08c379a00000000000000000000000000000000000000000000000000000000081526004018080602001828103825260178152602001807f536f6c7574696f6e2065786973747320616c726561647900000000000000000081525060200191505060405180910390fd5b6000601360009054906101000a900473ffffffffffffffffffffffffffffffffffffffff1673ffffffffffffffffffffffffffffffffffffffff1663fe01ff628c8c8c8c8c8c8c8c8c6040518a63ffffffff167c0100000000000000000000000000000000000000000000000000000000028152600401808a600260200280838360005b83811015611bb1578082015181840152602081019050611b96565b5050505090500189600260200280838360005b83811015611bdf578082015181840152602081019050611bc4565b505050509050018860026000925b81841015611c335782846020020151600260200280838360005b83811015611c22578082015181840152602081019050611c07565b505050509050019260010192611bed565b9250505087600260200280838360005b83811015611c5e578082015181840152602081019050611c43565b5050505090500186600260200280838360005b83811015611c8c578082015181840152602081019050611c71565b5050505090500185600260200280838360005b83811015611cba578082015181840152602081019050611c9f565b5050505090500184600260200280838360005b83811015611ce8578082015181840152602081019050611ccd565b5050505090500183600260200280838360005b83811015611d16578082015181840152602081019050611cfb565b5050505090500182600260200280838360005b83811015611d44578082015181840152602081019050611d29565b505050509050019950505050505050505050602060405180830381600087803b158015611d7057600080fd5b505af1158015611d84573d6000803e3d6000fd5b505050506040513d6020811015611d9a57600080fd5b81019080805190602001909291905050509050801515611e22576040517f08c379a000000000000000000000000000000000000000000000000000000000815260040180806020018281038252601e8152602001807f536f6c7574696f6e20636f756c64206e6f74206265207665726966696564000081525060200191505060405180910390fd5b60606040519081016040528060145481526020013373ffffffffffffffffffffffffffffffffffffffff16815260200160001515815250601560008481526020019081526020016000206000820151816000015560208201518160010160006101000a81548173ffffffffffffffffffffffffffffffffffffffff021916908373ffffffffffffffffffffffffffffffffffffffff16021790555060408201518160010160146101000a81548160ff0219169083151502179055509050503373ffffffffffffffffffffffffffffffffffffffff167f078793128cefb19aac38a33f9e5df39f67716907f6d747e8065545699e0b2b8d6014546040518082815260200191505060405180910390a26014600081548092919060010191905055505050505050505050505050565b60006002600083815260200190815260200160002060009054906101000a900473ffffffffffffffffffffffffffffffffffffffff169050919050565b6000611fd5600460008473ffffffffffffffffffffffffffffffffffffffff1673ffffffffffffffffffffffffffffffffffffffff1681526020019081526020016000206129fb565b9050919050565b6000809054906101000a900473ffffffffffffffffffffffffffffffffffffffff1673ffffffffffffffffffffffffffffffffffffffff163373ffffffffffffffffffffffffffffffffffffffff161415156120a0576040517f08c379a00000000000000000000000000000000000000000000000000000000081526004018080602001828103825260208152602001807f43616c6c6572206973206e6f742074686520636f6e7472616374206f776e657281525060200191505060405180910390fd5b60001515600060149054906101000a900460ff16151514151561212b576040517f08c379a000000000000000000000000000000000000000000000000000000000815260040180806020018281038252601c8152602001807f436f6e74726163742069732063757272656e746c79207061757365640000000081525060200191505060405180910390fd5b6001600060146101000a81548160ff0219169083151502179055503373ffffffffffffffffffffffffffffffffffffffff167f62e78cea01bee320cd4e420270b5ea74000d11b0c9f74754ebdbfc544b05a25860405160405180910390a2565b60008060009054906101000a900473ffffffffffffffffffffffffffffffffffffffff16905090565b60008060009054906101000a900473ffffffffffffffffffffffffffffffffffffffff1673ffffffffffffffffffffffffffffffffffffffff163373ffffffffffffffffffffffffffffffffffffffff1614905090565b606060108054600181600116156101000203166002900480601f0160208091040260200160405190810160405280929190818152602001828054600181600116156101000203166002900480156122a35780601f10612278576101008083540402835291602001916122a3565b820191906000526020600020905b81548152906001019060200180831161228657829003601f168201915b5050505050905090565b3373ffffffffffffffffffffffffffffffffffffffff168273ffffffffffffffffffffffffffffffffffffffff16141515156122e857600080fd5b80600560003373ffffffffffffffffffffffffffffffffffffffff1673ffffffffffffffffffffffffffffffffffffffff16815260200190815260200160002060008473ffffffffffffffffffffffffffffffffffffffff1673ffffffffffffffffffffffffffffffffffffffff16815260200190815260200160002060006101000a81548160ff0219169083151502179055508173ffffffffffffffffffffffffffffffffffffffff163373ffffffffffffffffffffffffffffffffffffffff167f17307eab39ab6107e8899845ad3d59bd9653f200f220920489ca2b5937696c3183604051808215151515815260200191505060405180910390a35050565b6123f48484846112e8565b61240084848484612a09565b151561240b57600080fd5b50505050565b606061241c82612c2c565b151561242757600080fd5b601260008381526020019081526020016000208054600181600116156101000203166002900480601f0160208091040260200160405190810160405280929190818152602001828054600181600116156101000203166002900480156124ce5780601f106124a3576101008083540402835291602001916124ce565b820191906000526020600020905b8154815290600101906020018083116124b157829003601f168201915b50505050509050919050565b606060118054600181600116156101000203166002900480601f0160208091040260200160405190810160405280929190818152602001828054600181600116156101000203166002900480156125725780601f1061254757610100808354040283529160200191612572565b820191906000526020600020905b81548152906001019060200180831161255557829003601f168201915b5050505050905090565b6000600560008473ffffffffffffffffffffffffffffffffffffffff1673ffffffffffffffffffffffffffffffffffffffff16815260200190815260200160002060008373ffffffffffffffffffffffffffffffffffffffff1673ffffffffffffffffffffffffffffffffffffffff16815260200190815260200160002060009054906101000a900460ff16905092915050565b6000809054906101000a900473ffffffffffffffffffffffffffffffffffffffff1673ffffffffffffffffffffffffffffffffffffffff163373ffffffffffffffffffffffffffffffffffffffff161415156126d4576040517f08c379a00000000000000000000000000000000000000000000000000000000081526004018080602001828103825260208152602001807f43616c6c6572206973206e6f742074686520636f6e7472616374206f776e657281525060200191505060405180910390fd5b600073ffffffffffffffffffffffffffffffffffffffff168173ffffffffffffffffffffffffffffffffffffffff161415151561271057600080fd5b8073ffffffffffffffffffffffffffffffffffffffff166000809054906101000a900473ffffffffffffffffffffffffffffffffffffffff1673ffffffffffffffffffffffffffffffffffffffff167f8be0079c531659141344cd1fd0a4f28419497f9722a3daafe3b4186f6b6457e060405160405180910390a3806000806101000a81548173ffffffffffffffffffffffffffffffffffffffff021916908373ffffffffffffffffffffffffffffffffffffffff16021790555050565b6000806127da83611f4f565b90508073ffffffffffffffffffffffffffffffffffffffff168473ffffffffffffffffffffffffffffffffffffffff16148061284957508373ffffffffffffffffffffffffffffffffffffffff16612831846110a4565b73ffffffffffffffffffffffffffffffffffffffff16145b8061285a5750612859818561257c565b5b91505092915050565b61286e838383612c9e565b6128788382612f1a565b61288282826130be565b505050565b6128918282613185565b61289b82826130be565b6128a4816133fa565b5050565b6128b181612c2c565b1515612925576040517f08c379a00000000000000000000000000000000000000000000000000000000081526004018080602001828103825260148152602001807f546f6b656e20646f6573206e6f7420657869737400000000000000000000000081525060200191505060405180910390fd5b6129d160118054600181600116156101000203166002900480601f0160208091040260200160405190810160405280929190818152602001828054600181600116156101000203166002900480156129be5780601f10612993576101008083540402835291602001916129be565b820191906000526020600020905b8154815290600101906020018083116129a157829003601f168201915b50505050506129cc83613446565b61359f565b6012600083815260200190815260200160002090805190602001906129f7929190613b2f565b5050565b600081600001549050919050565b6000612a2a8473ffffffffffffffffffffffffffffffffffffffff166135e6565b1515612a395760019050612c24565b60008473ffffffffffffffffffffffffffffffffffffffff1663150b7a02338887876040518563ffffffff167c0100000000000000000000000000000000000000000000000000000000028152600401808573ffffffffffffffffffffffffffffffffffffffff1673ffffffffffffffffffffffffffffffffffffffff1681526020018473ffffffffffffffffffffffffffffffffffffffff1673ffffffffffffffffffffffffffffffffffffffff16815260200183815260200180602001828103825283818151815260200191508051906020019080838360005b83811015612b30578082015181840152602081019050612b15565b50505050905090810190601f168015612b5d5780820380516001836020036101000a031916815260200191505b5095505050505050602060405180830381600087803b158015612b7f57600080fd5b505af1158015612b93573d6000803e3d6000fd5b505050506040513d6020811015612ba957600080fd5b8101908080519060200190929190505050905063150b7a027c0100000000000000000000000000000000000000000000000000000000027bffffffffffffffffffffffffffffffffffffffffffffffffffffffff1916817bffffffffffffffffffffffffffffffffffffffffffffffffffffffff1916149150505b949350505050565b6000806002600084815260200190815260200160002060009054906101000a900473ffffffffffffffffffffffffffffffffffffffff169050600073ffffffffffffffffffffffffffffffffffffffff168173ffffffffffffffffffffffffffffffffffffffff161415915050919050565b612ca781611f4f565b73ffffffffffffffffffffffffffffffffffffffff168373ffffffffffffffffffffffffffffffffffffffff16141515612d2c576040517f08c379a0000000000000000000000000000000000000000000000000000000008152600401808060200182810382526021815260200180613c2c6021913960400191505060405180910390fd5b600073ffffffffffffffffffffffffffffffffffffffff168273ffffffffffffffffffffffffffffffffffffffff1614151515612dd1576040517f08c379a00000000000000000000000000000000000000000000000000000000081526004018080602001828103825260128152602001807f496e76616c696420746f2061646472657373000000000000000000000000000081525060200191505060405180910390fd5b612dda816135f9565b612e21600460008573ffffffffffffffffffffffffffffffffffffffff1673ffffffffffffffffffffffffffffffffffffffff1681526020019081526020016000206136b9565b612e68600460008473ffffffffffffffffffffffffffffffffffffffff1673ffffffffffffffffffffffffffffffffffffffff1681526020019081526020016000206136dc565b816002600083815260200190815260200160002060006101000a81548173ffffffffffffffffffffffffffffffffffffffff021916908373ffffffffffffffffffffffffffffffffffffffff160217905550808273ffffffffffffffffffffffffffffffffffffffff168473ffffffffffffffffffffffffffffffffffffffff167fddf252ad1be2c89b69c2b068fc378daa952ba7f163c4a11628f55a4df523b3ef60405160405180910390a4505050565b6000612f726001600660008673ffffffffffffffffffffffffffffffffffffffff1673ffffffffffffffffffffffffffffffffffffffff168152602001908152602001600020805490506136f290919063ffffffff16565b90506000600760008481526020019081526020016000205490508181141515613065576000600660008673ffffffffffffffffffffffffffffffffffffffff1673ffffffffffffffffffffffffffffffffffffffff16815260200190815260200160002083815481101515612fe357fe5b9060005260206000200154905080600660008773ffffffffffffffffffffffffffffffffffffffff1673ffffffffffffffffffffffffffffffffffffffff1681526020019081526020016000208381548110151561303d57fe5b9060005260206000200181905550816007600083815260200190815260200160002081905550505b600660008573ffffffffffffffffffffffffffffffffffffffff1673ffffffffffffffffffffffffffffffffffffffff1681526020019081526020016000208054809190600190036130b79190613baf565b5050505050565b600660008373ffffffffffffffffffffffffffffffffffffffff1673ffffffffffffffffffffffffffffffffffffffff168152602001908152602001600020805490506007600083815260200190815260200160002081905550600660008373ffffffffffffffffffffffffffffffffffffffff1673ffffffffffffffffffffffffffffffffffffffff1681526020019081526020016000208190806001815401808255809150509060018203906000526020600020016000909192909190915055505050565b600073ffffffffffffffffffffffffffffffffffffffff166002600083815260200190815260200160002060009054906101000a900473ffffffffffffffffffffffffffffffffffffffff1673ffffffffffffffffffffffffffffffffffffffff1614151561325c576040517f08c379a00000000000000000000000000000000000000000000000000000000081526004018080602001828103825260148152602001807f546f6b656e2065786973747320616c726561647900000000000000000000000081525060200191505060405180910390fd5b600073ffffffffffffffffffffffffffffffffffffffff168273ffffffffffffffffffffffffffffffffffffffff1614151515613301576040517f08c379a00000000000000000000000000000000000000000000000000000000081526004018080602001828103825260128152602001807f496e76616c696420746f2061646472657373000000000000000000000000000081525060200191505060405180910390fd5b816002600083815260200190815260200160002060006101000a81548173ffffffffffffffffffffffffffffffffffffffff021916908373ffffffffffffffffffffffffffffffffffffffff16021790555061339a600460008473ffffffffffffffffffffffffffffffffffffffff1673ffffffffffffffffffffffffffffffffffffffff1681526020019081526020016000206136dc565b808273ffffffffffffffffffffffffffffffffffffffff16600073ffffffffffffffffffffffffffffffffffffffff167fddf252ad1be2c89b69c2b068fc378daa952ba7f163c4a11628f55a4df523b3ef60405160405180910390a45050565b6008805490506009600083815260200190815260200160002081905550600881908060018154018082558091505090600182039060005260206000200160009091929091909150555050565b6060600082141561348e576040805190810160405280600181526020017f3000000000000000000000000000000000000000000000000000000000000000815250905061359a565b600082905060005b6000821415156134bc578080600101915050600a828115156134b457fe5b049150613496565b6060816040519080825280601f01601f1916602001820160405280156134f15781602001600182028038833980820191505090505b50905060006001830390505b60008614151561359257600a8681151561351357fe5b066030017f01000000000000000000000000000000000000000000000000000000000000000282828060019003935081518110151561354e57fe5b9060200101907effffffffffffffffffffffffffffffffffffffffffffffffffffffffffffff1916908160001a905350600a8681151561358a57fe5b0495506134fd565b819450505050505b919050565b60606135de8383602060405190810160405280600081525060206040519081016040528060008152506020604051908101604052806000815250613714565b905092915050565b600080823b905060008111915050919050565b600073ffffffffffffffffffffffffffffffffffffffff166003600083815260200190815260200160002060009054906101000a900473ffffffffffffffffffffffffffffffffffffffff1673ffffffffffffffffffffffffffffffffffffffff161415156136b65760006003600083815260200190815260200160002060006101000a81548173ffffffffffffffffffffffffffffffffffffffff021916908373ffffffffffffffffffffffffffffffffffffffff1602179055505b50565b6136d1600182600001546136f290919063ffffffff16565b816000018190555050565b6001816000016000828254019250508190555050565b600082821115151561370357600080fd5b600082840390508091505092915050565b6060808690506060869050606086905060608690506060869050606081518351855187518951010101016040519080825280601f01601f1916602001820160405280156137705781602001600182028038833980820191505090505b509050606081905060008090506000809050600090505b885181101561383a57888181518110151561379e57fe5b9060200101517f010000000000000000000000000000000000000000000000000000000000000090047f01000000000000000000000000000000000000000000000000000000000000000283838060010194508151811015156137fd57fe5b9060200101907effffffffffffffffffffffffffffffffffffffffffffffffffffffffffffff1916908160001a9053508080600101915050613787565b600090505b87518110156138f257878181518110151561385657fe5b9060200101517f010000000000000000000000000000000000000000000000000000000000000090047f01000000000000000000000000000000000000000000000000000000000000000283838060010194508151811015156138b557fe5b9060200101907effffffffffffffffffffffffffffffffffffffffffffffffffffffffffffff1916908160001a905350808060010191505061383f565b600090505b86518110156139aa57868181518110151561390e57fe5b9060200101517f010000000000000000000000000000000000000000000000000000000000000090047f010000000000000000000000000000000000000000000000000000000000000002838380600101945081518110151561396d57fe5b9060200101907effffffffffffffffffffffffffffffffffffffffffffffffffffffffffffff1916908160001a90535080806001019150506138f7565b600090505b8551811015613a625785818151811015156139c657fe5b9060200101517f010000000000000000000000000000000000000000000000000000000000000090047f0100000000000000000000000000000000000000000000000000000000000000028383806001019450815181101515613a2557fe5b9060200101907effffffffffffffffffffffffffffffffffffffffffffffffffffffffffffff1916908160001a90535080806001019150506139af565b600090505b8451811015613b1a578481815181101515613a7e57fe5b9060200101517f010000000000000000000000000000000000000000000000000000000000000090047f0100000000000000000000000000000000000000000000000000000000000000028383806001019450815181101515613add57fe5b9060200101907effffffffffffffffffffffffffffffffffffffffffffffffffffffffffffff1916908160001a9053508080600101915050613a67565b82995050505050505050505095945050505050565b828054600181600116156101000203166002900490600052602060002090601f016020900481019282601f10613b7057805160ff1916838001178555613b9e565b82800160010185558215613b9e579182015b82811115613b9d578251825591602001919060010190613b82565b5b509050613bab9190613bdb565b5090565b815481835581811115613bd657818360005260206000209182019101613bd59190613bdb565b5b505050565b613bfd91905b80821115613bf9576000816000905550600101613be1565b5090565b9056fe43616c6c6572206973206e6f7420617574686f72697a656420616761696e7374207468697320746f6b656e4f6e6c7920746f6b656e206f776e65722063616e20706572666f726d20746869734f6e6c7920736f6c7574696f6e20616464726573732063616e2075736520697420746f206d696e74206120746f6b656e546f6b656e20616c7265616479206d696e74656420666f72207468697320736f6c7574696f6ea165627a7a72305820c81b74a5d277ec8ad278eaf9717ff93ee20998adca22967c53ddbae553c9fdec002968747470733a2f2f73332d75732d776573742d322e616d617a6f6e6177732e636f6d2f756461636974792d626c6f636b636861696e2f63617073746f6e652f",
  "source": "pragma solidity >0.4.24;\n\nimport \"./ERC721MintableComplete.sol\";\n\n// 2. TODO define another contract named SolnSquareVerifier that inherits from your ERC721Mintable class\ncontract SolnSquareVerifier is ERC721MintableComplete {\n    Verifier private verifierContract;\n\n    // 3. TODO define a solutions struct that can hold an index & an address\n    struct Solution {\n        uint256 solutionIndex;\n        address solutionAddress;\n        bool minted; //flag to indicate if this solution has been used in token minting\n    }\n\n    // 4. TODO define an array of the above struct\n    //Solution[] private solutions;\n    uint256 numberOfSolutions = 0;\n\n    // 5. TODO define a mapping to store unique solutions submitted\n    mapping (bytes32 => Solution) solutions;\n\n    // 6. TODO Create an event to emit when a solution is added\n    event SolutionAdded(uint256 solutionIndex, address indexed solutionAddress);\n\n    constructor(address verifierAddress, string memory name, string memory symbol) \n        ERC721MintableComplete(name, symbol) \n        public \n    {\n        verifierContract = Verifier(verifierAddress);\n    }\n\n    // 7. TODO Create a function to add the solutions to the array and emit the event\n    function addSolution(\n        uint[2] memory A,\n        uint[2] memory A_p,\n        uint[2][2] memory B,\n        uint[2] memory B_p,\n        uint[2] memory C,\n        uint[2] memory C_p,\n        uint[2] memory H,\n        uint[2] memory K,\n        uint[2] memory input\n    ) \n        public \n    {\n        bytes32 solutionHash = keccak256(abi.encodePacked(input[0], input[1]));\n        require(solutions[solutionHash].solutionAddress == address(0), \"Solution exists already\");\n        \n        bool verified = verifierContract.verifyTx(A, A_p, B, B_p, C, C_p, H, K, input);\n        require(verified, \"Solution could not be verified\");\n\n        solutions[solutionHash] = Solution(numberOfSolutions, msg.sender, false);\n        //solutions.push(solution);\n        emit SolutionAdded(numberOfSolutions, msg.sender);\n        numberOfSolutions++;\n    }\n\n    // 8. TODO Create a function to mint new NFT only after the solution has been verified\n    //      - make sure the solution is unique (has not been used before)\n    //      - make sure you handle metadata as well as tokenSuplly\n    function mintNewNFT(uint a, uint b, address to) public\n    {\n        bytes32 solutionHash = keccak256(abi.encodePacked(a, b));\n        require(solutions[solutionHash].solutionAddress != address(0), \"Solution does not exist\");\n        require(solutions[solutionHash].minted == false, \"Token already minted for this solution\");\n        require(solutions[solutionHash].solutionAddress == msg.sender, \"Only solution address can use it to mint a token\");\n        super.mint(to, solutions[solutionHash].solutionIndex);\n        solutions[solutionHash].minted = true;\n    }\n}\n\n// 1. TODO define a contract call to the zokrates generated solidity contract <Verifier> or <renamedVerifier>\ncontract Verifier {\n    function verifyTx(\n        uint[2] memory A,\n        uint[2] memory A_p,\n        uint[2][2] memory B,\n        uint[2] memory B_p,\n        uint[2] memory C,\n        uint[2] memory C_p,\n        uint[2] memory H,\n        uint[2] memory K,\n        uint[2] memory input\n    )\n    public\n    returns\n    (bool r);\n}\n\n\n\n\n\n\n\n\n\n\n\n\n\n\n\n\n\n\n\n\n\n\n\n\n\n\n",
  "sourcePath": "/home/jerry/Desktop/Blockchain/Blockchain-Capstone-Real-Estate-Marketplace/eth-contracts/contracts/SolnSquareVerifier.sol",
  "compiler": {
    "name": "solc",
    "version": "0.5.2+commit.1df8f40c.Emscripten.clang"
  },
  "schemaVersion": "3.4.13",
  "updatedAt": "2023-03-21T16:26:04.658Z",
  "devdoc": {
    "methods": {
      "isApprovedForAll(address,address)": {
        "details": "Tells whether an operator is approved by a given owner",
        "params": {
          "operator": "operator address which you want to query the approval of",
          "owner": "owner address which you want to query the approval of"
        },
        "return": "bool whether the given operator is approved by the given owner"
      },
      "isOwner()": {
        "return": "true if `msg.sender` is the owner of the contract."
      },
      "owner()": {
        "return": "the address of the owner."
      },
      "pause()": {
        "details": "called by the owner to pause, triggers stopped state"
      },
      "setApprovalForAll(address,bool)": {
        "details": "Sets or unsets the approval of a given operator An operator is allowed to transfer all tokens of the sender on their behalf",
        "params": {
          "approved": "representing the status of the approval to be set",
          "to": "operator address to set the approval"
        }
      },
      "supportsInterface(bytes4)": {
        "details": "implement supportsInterface(bytes4) using a lookup table"
      },
      "tokenByIndex(uint256)": {
        "details": "Gets the token ID at a given index of all the tokens in this contract Reverts if the index is greater or equal to the total number of tokens",
        "params": {
          "index": "uint256 representing the index to be accessed of the tokens list"
        },
        "return": "uint256 token ID at the given index of the tokens list"
      },
      "tokenOfOwnerByIndex(address,uint256)": {
        "details": "Gets the token ID at a given index of the tokens list of the requested owner",
        "params": {
          "index": "uint256 representing the index to be accessed of the requested tokens list",
          "owner": "address owning the tokens list to be accessed"
        },
        "return": "uint256 token ID at the given index of the tokens list owned by the requested address"
      },
      "totalSupply()": {
        "details": "Gets the total amount of tokens stored by the contract",
        "return": "uint256 representing the total amount of tokens"
      },
      "unpause()": {
        "details": "called by the owner to unpause, returns to normal state"
      }
    }
  },
  "userdoc": {
    "methods": {}
  }
}